{
  "_format": "hh-sol-artifact-1",
  "contractName": "NftMarketPlace",
  "sourceName": "contracts/NftMarketPlace.sol",
  "abi": [
    {
      "inputs": [],
      "stateMutability": "nonpayable",
      "type": "constructor"
    },
    {
      "anonymous": false,
      "inputs": [
        {
          "indexed": true,
          "internalType": "address",
          "name": "owner",
          "type": "address"
        },
        {
          "indexed": true,
          "internalType": "address",
          "name": "approved",
          "type": "address"
        },
        {
          "indexed": true,
          "internalType": "uint256",
          "name": "tokenId",
          "type": "uint256"
        }
      ],
      "name": "Approval",
      "type": "event"
    },
    {
      "anonymous": false,
      "inputs": [
        {
          "indexed": true,
          "internalType": "address",
          "name": "owner",
          "type": "address"
        },
        {
          "indexed": true,
          "internalType": "address",
          "name": "operator",
          "type": "address"
        },
        {
          "indexed": false,
          "internalType": "bool",
          "name": "approved",
          "type": "bool"
        }
      ],
      "name": "ApprovalForAll",
      "type": "event"
    },
    {
      "anonymous": false,
      "inputs": [
        {
          "indexed": true,
          "internalType": "uint256",
          "name": "tokenId",
          "type": "uint256"
        },
        {
          "indexed": false,
          "internalType": "address",
          "name": "seller",
          "type": "address"
        },
        {
          "indexed": false,
          "internalType": "address",
          "name": "owner",
          "type": "address"
        },
        {
          "indexed": false,
          "internalType": "uint256",
          "name": "price",
          "type": "uint256"
        },
        {
          "indexed": false,
          "internalType": "bool",
          "name": "sold",
          "type": "bool"
        }
      ],
      "name": "MarketItemCreated",
      "type": "event"
    },
    {
      "anonymous": false,
      "inputs": [
        {
          "indexed": true,
          "internalType": "address",
          "name": "from",
          "type": "address"
        },
        {
          "indexed": true,
          "internalType": "address",
          "name": "to",
          "type": "address"
        },
        {
          "indexed": true,
          "internalType": "uint256",
          "name": "tokenId",
          "type": "uint256"
        }
      ],
      "name": "Transfer",
      "type": "event"
    },
    {
      "inputs": [
        {
          "internalType": "address",
          "name": "to",
          "type": "address"
        },
        {
          "internalType": "uint256",
          "name": "tokenId",
          "type": "uint256"
        }
      ],
      "name": "approve",
      "outputs": [],
      "stateMutability": "nonpayable",
      "type": "function"
    },
    {
      "inputs": [
        {
          "internalType": "address",
          "name": "owner",
          "type": "address"
        }
      ],
      "name": "balanceOf",
      "outputs": [
        {
          "internalType": "uint256",
          "name": "",
          "type": "uint256"
        }
      ],
      "stateMutability": "view",
      "type": "function"
    },
    {
      "inputs": [
        {
          "internalType": "uint256",
          "name": "tokenId",
          "type": "uint256"
        }
      ],
      "name": "createMarketSale",
      "outputs": [],
      "stateMutability": "payable",
      "type": "function"
    },
    {
      "inputs": [
        {
          "internalType": "string",
          "name": "tokenURI",
          "type": "string"
        },
        {
          "internalType": "uint256",
          "name": "price",
          "type": "uint256"
        }
      ],
      "name": "createToken",
      "outputs": [
        {
          "internalType": "uint256",
          "name": "",
          "type": "uint256"
        }
      ],
      "stateMutability": "payable",
      "type": "function"
    },
    {
      "inputs": [],
      "name": "fetchItemsListed",
      "outputs": [
        {
          "components": [
            {
              "internalType": "uint256",
              "name": "tokenId",
              "type": "uint256"
            },
            {
              "internalType": "address payable",
              "name": "seller",
              "type": "address"
            },
            {
              "internalType": "address payable",
              "name": "owner",
              "type": "address"
            },
            {
              "internalType": "uint256",
              "name": "price",
              "type": "uint256"
            },
            {
              "internalType": "bool",
              "name": "sold",
              "type": "bool"
            }
          ],
          "internalType": "struct NftMarketPlace.MarketItem[]",
          "name": "",
          "type": "tuple[]"
        }
      ],
      "stateMutability": "view",
      "type": "function"
    },
    {
      "inputs": [],
      "name": "fetchMarketItems",
      "outputs": [
        {
          "components": [
            {
              "internalType": "uint256",
              "name": "tokenId",
              "type": "uint256"
            },
            {
              "internalType": "address payable",
              "name": "seller",
              "type": "address"
            },
            {
              "internalType": "address payable",
              "name": "owner",
              "type": "address"
            },
            {
              "internalType": "uint256",
              "name": "price",
              "type": "uint256"
            },
            {
              "internalType": "bool",
              "name": "sold",
              "type": "bool"
            }
          ],
          "internalType": "struct NftMarketPlace.MarketItem[]",
          "name": "",
          "type": "tuple[]"
        }
      ],
      "stateMutability": "view",
      "type": "function"
    },
    {
      "inputs": [],
      "name": "fetchMyNfts",
      "outputs": [
        {
          "components": [
            {
              "internalType": "uint256",
              "name": "tokenId",
              "type": "uint256"
            },
            {
              "internalType": "address payable",
              "name": "seller",
              "type": "address"
            },
            {
              "internalType": "address payable",
              "name": "owner",
              "type": "address"
            },
            {
              "internalType": "uint256",
              "name": "price",
              "type": "uint256"
            },
            {
              "internalType": "bool",
              "name": "sold",
              "type": "bool"
            }
          ],
          "internalType": "struct NftMarketPlace.MarketItem[]",
          "name": "",
          "type": "tuple[]"
        }
      ],
      "stateMutability": "view",
      "type": "function"
    },
    {
      "inputs": [
        {
          "internalType": "uint256",
          "name": "tokenId",
          "type": "uint256"
        }
      ],
      "name": "getApproved",
      "outputs": [
        {
          "internalType": "address",
          "name": "",
          "type": "address"
        }
      ],
      "stateMutability": "view",
      "type": "function"
    },
    {
      "inputs": [],
      "name": "getListingPrice",
      "outputs": [
        {
          "internalType": "uint256",
          "name": "",
          "type": "uint256"
        }
      ],
      "stateMutability": "view",
      "type": "function"
    },
    {
      "inputs": [
        {
          "internalType": "address",
          "name": "owner",
          "type": "address"
        },
        {
          "internalType": "address",
          "name": "operator",
          "type": "address"
        }
      ],
      "name": "isApprovedForAll",
      "outputs": [
        {
          "internalType": "bool",
          "name": "",
          "type": "bool"
        }
      ],
      "stateMutability": "view",
      "type": "function"
    },
    {
      "inputs": [],
      "name": "name",
      "outputs": [
        {
          "internalType": "string",
          "name": "",
          "type": "string"
        }
      ],
      "stateMutability": "view",
      "type": "function"
    },
    {
      "inputs": [
        {
          "internalType": "uint256",
          "name": "tokenId",
          "type": "uint256"
        }
      ],
      "name": "ownerOf",
      "outputs": [
        {
          "internalType": "address",
          "name": "",
          "type": "address"
        }
      ],
      "stateMutability": "view",
      "type": "function"
    },
    {
      "inputs": [
        {
          "internalType": "uint256",
          "name": "tokenId",
          "type": "uint256"
        },
        {
          "internalType": "uint256",
          "name": "price",
          "type": "uint256"
        }
      ],
      "name": "reSellToken",
      "outputs": [],
      "stateMutability": "payable",
      "type": "function"
    },
    {
      "inputs": [
        {
          "internalType": "address",
          "name": "from",
          "type": "address"
        },
        {
          "internalType": "address",
          "name": "to",
          "type": "address"
        },
        {
          "internalType": "uint256",
          "name": "tokenId",
          "type": "uint256"
        }
      ],
      "name": "safeTransferFrom",
      "outputs": [],
      "stateMutability": "nonpayable",
      "type": "function"
    },
    {
      "inputs": [
        {
          "internalType": "address",
          "name": "from",
          "type": "address"
        },
        {
          "internalType": "address",
          "name": "to",
          "type": "address"
        },
        {
          "internalType": "uint256",
          "name": "tokenId",
          "type": "uint256"
        },
        {
          "internalType": "bytes",
          "name": "_data",
          "type": "bytes"
        }
      ],
      "name": "safeTransferFrom",
      "outputs": [],
      "stateMutability": "nonpayable",
      "type": "function"
    },
    {
      "inputs": [
        {
          "internalType": "address",
          "name": "operator",
          "type": "address"
        },
        {
          "internalType": "bool",
          "name": "approved",
          "type": "bool"
        }
      ],
      "name": "setApprovalForAll",
      "outputs": [],
      "stateMutability": "nonpayable",
      "type": "function"
    },
    {
      "inputs": [
        {
          "internalType": "bytes4",
          "name": "interfaceId",
          "type": "bytes4"
        }
      ],
      "name": "supportsInterface",
      "outputs": [
        {
          "internalType": "bool",
          "name": "",
          "type": "bool"
        }
      ],
      "stateMutability": "view",
      "type": "function"
    },
    {
      "inputs": [],
      "name": "symbol",
      "outputs": [
        {
          "internalType": "string",
          "name": "",
          "type": "string"
        }
      ],
      "stateMutability": "view",
      "type": "function"
    },
    {
      "inputs": [
        {
          "internalType": "uint256",
          "name": "tokenId",
          "type": "uint256"
        }
      ],
      "name": "tokenURI",
      "outputs": [
        {
          "internalType": "string",
          "name": "",
          "type": "string"
        }
      ],
      "stateMutability": "view",
      "type": "function"
    },
    {
      "inputs": [
        {
          "internalType": "address",
          "name": "from",
          "type": "address"
        },
        {
          "internalType": "address",
          "name": "to",
          "type": "address"
        },
        {
          "internalType": "uint256",
          "name": "tokenId",
          "type": "uint256"
        }
      ],
      "name": "transferFrom",
      "outputs": [],
      "stateMutability": "nonpayable",
      "type": "function"
    },
    {
      "inputs": [
        {
          "internalType": "uint256",
          "name": "_price",
          "type": "uint256"
        }
      ],
      "name": "updateListingPrice",
      "outputs": [],
      "stateMutability": "nonpayable",
      "type": "function"
    }
  ],
  "bytecode": "0x60806040526658d15e176280006009553480156200001c57600080fd5b506040518060400160405280601081526020017f4d657461766572736520546f6b656e73000000000000000000000000000000008152506040518060400160405280600481526020017f4d455454000000000000000000000000000000000000000000000000000000008152508160009080519060200190620000a192919062000104565b508060019080519060200190620000ba92919062000104565b50505033600a60006101000a81548173ffffffffffffffffffffffffffffffffffffffff021916908373ffffffffffffffffffffffffffffffffffffffff16021790555062000219565b8280546200011290620001b4565b90600052602060002090601f01602090048101928262000136576000855562000182565b82601f106200015157805160ff191683800117855562000182565b8280016001018555821562000182579182015b828111156200018157825182559160200191906001019062000164565b5b50905062000191919062000195565b5090565b5b80821115620001b057600081600090555060010162000196565b5090565b60006002820490506001821680620001cd57607f821691505b60208210811415620001e457620001e3620001ea565b5b50919050565b7f4e487b7100000000000000000000000000000000000000000000000000000000600052602260045260246000fd5b61422380620002296000396000f3fe60806040526004361061012a5760003560e01c80636352211e116100ab578063a22cb4651161006f578063a22cb465146103ec578063ae677aa314610415578063b88d4fde1461043e578063be9af53614610467578063c87b56dd14610483578063e985e9c5146104c05761012a565b80636352211e146102fb57806370a082311461033857806372b3b6201461037557806385535b25146103a557806395d89b41146103c15761012a565b8063128ae712116100f2578063128ae7121461022857806312e855851461025357806323b872dd1461027e57806342842e0e146102a757806345f8fa80146102d05761012a565b806301ffc9a71461012f57806306fdde031461016c578063081812fc14610197578063095ea7b3146101d45780630f08efe0146101fd575b600080fd5b34801561013b57600080fd5b5061015660048036038101906101519190612e1b565b6104fd565b60405161016391906134d2565b60405180910390f35b34801561017857600080fd5b506101816105df565b60405161018e91906134ed565b60405180910390f35b3480156101a357600080fd5b506101be60048036038101906101b99190612ec1565b610671565b6040516101cb9190613404565b60405180910390f35b3480156101e057600080fd5b506101fb60048036038101906101f69190612ddf565b6106f6565b005b34801561020957600080fd5b5061021261080e565b60405161021f91906134b0565b60405180910390f35b34801561023457600080fd5b5061023d610ab9565b60405161024a91906134b0565b60405180910390f35b34801561025f57600080fd5b50610268610df1565b60405161027591906137af565b60405180910390f35b34801561028a57600080fd5b506102a560048036038101906102a09190612cd9565b610dfb565b005b3480156102b357600080fd5b506102ce60048036038101906102c99190612cd9565b610e5b565b005b3480156102dc57600080fd5b506102e5610e7b565b6040516102f291906134b0565b60405180910390f35b34801561030757600080fd5b50610322600480360381019061031d9190612ec1565b6111b3565b60405161032f9190613404565b60405180910390f35b34801561034457600080fd5b5061035f600480360381019061035a9190612c74565b611265565b60405161036c91906137af565b60405180910390f35b61038f600480360381019061038a9190612e6d565b61131d565b60405161039c91906137af565b60405180910390f35b6103bf60048036038101906103ba9190612eea565b61135f565b005b3480156103cd57600080fd5b506103d6611554565b6040516103e391906134ed565b60405180910390f35b3480156103f857600080fd5b50610413600480360381019061040e9190612da3565b6115e6565b005b34801561042157600080fd5b5061043c60048036038101906104379190612ec1565b6115fc565b005b34801561044a57600080fd5b5061046560048036038101906104609190612d28565b611606565b005b610481600480360381019061047c9190612ec1565b611668565b005b34801561048f57600080fd5b506104aa60048036038101906104a59190612ec1565b6118b0565b6040516104b791906134ed565b60405180910390f35b3480156104cc57600080fd5b506104e760048036038101906104e29190612c9d565b611a02565b6040516104f491906134d2565b60405180910390f35b60007f80ac58cd000000000000000000000000000000000000000000000000000000007bffffffffffffffffffffffffffffffffffffffffffffffffffffffff1916827bffffffffffffffffffffffffffffffffffffffffffffffffffffffff191614806105c857507f5b5e139f000000000000000000000000000000000000000000000000000000007bffffffffffffffffffffffffffffffffffffffffffffffffffffffff1916827bffffffffffffffffffffffffffffffffffffffffffffffffffffffff1916145b806105d857506105d782611a96565b5b9050919050565b6060600080546105ee90613a50565b80601f016020809104026020016040519081016040528092919081815260200182805461061a90613a50565b80156106675780601f1061063c57610100808354040283529160200191610667565b820191906000526020600020905b81548152906001019060200180831161064a57829003601f168201915b5050505050905090565b600061067c82611b00565b6106bb576040517f08c379a00000000000000000000000000000000000000000000000000000000081526004016106b2906136ef565b60405180910390fd5b6004600083815260200190815260200160002060009054906101000a900473ffffffffffffffffffffffffffffffffffffffff169050919050565b6000610701826111b3565b90508073ffffffffffffffffffffffffffffffffffffffff168373ffffffffffffffffffffffffffffffffffffffff161415610772576040517f08c379a00000000000000000000000000000000000000000000000000000000081526004016107699061374f565b60405180910390fd5b8073ffffffffffffffffffffffffffffffffffffffff16610791611b6c565b73ffffffffffffffffffffffffffffffffffffffff1614806107c057506107bf816107ba611b6c565b611a02565b5b6107ff576040517f08c379a00000000000000000000000000000000000000000000000000000000081526004016107f69061362f565b60405180910390fd5b6108098383611b74565b505050565b6060600061081c6007611c2d565b9050600061082a6008611c2d565b826108359190613954565b90506000808267ffffffffffffffff81111561087a577f4e487b7100000000000000000000000000000000000000000000000000000000600052604160045260246000fd5b6040519080825280602002602001820160405280156108b357816020015b6108a0612a3b565b8152602001906001900390816108985790505b50905060005b84811015610aae573073ffffffffffffffffffffffffffffffffffffffff16600b60006001846108e991906138cd565b815260200190815260200160002060020160009054906101000a900473ffffffffffffffffffffffffffffffffffffffff1673ffffffffffffffffffffffffffffffffffffffff161415610a9b57600060018261094691906138cd565b90506000600b60008381526020019081526020016000209050806040518060a0016040529081600082015481526020016001820160009054906101000a900473ffffffffffffffffffffffffffffffffffffffff1673ffffffffffffffffffffffffffffffffffffffff1673ffffffffffffffffffffffffffffffffffffffff1681526020016002820160009054906101000a900473ffffffffffffffffffffffffffffffffffffffff1673ffffffffffffffffffffffffffffffffffffffff1673ffffffffffffffffffffffffffffffffffffffff168152602001600382015481526020016004820160009054906101000a900460ff161515151581525050848681518110610a7f577f4e487b7100000000000000000000000000000000000000000000000000000000600052603260045260246000fd5b60200260200101819052508480610a9590613ab3565b95505050505b8080610aa690613ab3565b9150506108b9565b508094505050505090565b60606000610ac76007611c2d565b905060008060005b83811015610b6f573373ffffffffffffffffffffffffffffffffffffffff16600b6000600184610aff91906138cd565b815260200190815260200160002060020160009054906101000a900473ffffffffffffffffffffffffffffffffffffffff1673ffffffffffffffffffffffffffffffffffffffff161415610b5c578280610b5890613ab3565b9350505b8080610b6790613ab3565b915050610acf565b5060008267ffffffffffffffff811115610bb2577f4e487b7100000000000000000000000000000000000000000000000000000000600052604160045260246000fd5b604051908082528060200260200182016040528015610beb57816020015b610bd8612a3b565b815260200190600190039081610bd05790505b50905060005b84811015610de6573373ffffffffffffffffffffffffffffffffffffffff16600b6000600184610c2191906138cd565b815260200190815260200160002060020160009054906101000a900473ffffffffffffffffffffffffffffffffffffffff1673ffffffffffffffffffffffffffffffffffffffff161415610dd3576000600182610c7e91906138cd565b90506000600b60008381526020019081526020016000209050806040518060a0016040529081600082015481526020016001820160009054906101000a900473ffffffffffffffffffffffffffffffffffffffff1673ffffffffffffffffffffffffffffffffffffffff1673ffffffffffffffffffffffffffffffffffffffff1681526020016002820160009054906101000a900473ffffffffffffffffffffffffffffffffffffffff1673ffffffffffffffffffffffffffffffffffffffff1673ffffffffffffffffffffffffffffffffffffffff168152602001600382015481526020016004820160009054906101000a900460ff161515151581525050848681518110610db7577f4e487b7100000000000000000000000000000000000000000000000000000000600052603260045260246000fd5b60200260200101819052508480610dcd90613ab3565b95505050505b8080610dde90613ab3565b915050610bf1565b508094505050505090565b6000600954905090565b610e0c610e06611b6c565b82611c3b565b610e4b576040517f08c379a0000000000000000000000000000000000000000000000000000000008152600401610e429061378f565b60405180910390fd5b610e56838383611d19565b505050565b610e7683838360405180602001604052806000815250611606565b505050565b60606000610e896007611c2d565b905060008060005b83811015610f31573373ffffffffffffffffffffffffffffffffffffffff16600b6000600184610ec191906138cd565b815260200190815260200160002060010160009054906101000a900473ffffffffffffffffffffffffffffffffffffffff1673ffffffffffffffffffffffffffffffffffffffff161415610f1e578280610f1a90613ab3565b9350505b8080610f2990613ab3565b915050610e91565b5060008267ffffffffffffffff811115610f74577f4e487b7100000000000000000000000000000000000000000000000000000000600052604160045260246000fd5b604051908082528060200260200182016040528015610fad57816020015b610f9a612a3b565b815260200190600190039081610f925790505b50905060005b848110156111a8573373ffffffffffffffffffffffffffffffffffffffff16600b6000600184610fe391906138cd565b815260200190815260200160002060010160009054906101000a900473ffffffffffffffffffffffffffffffffffffffff1673ffffffffffffffffffffffffffffffffffffffff16141561119557600060018261104091906138cd565b90506000600b60008381526020019081526020016000209050806040518060a0016040529081600082015481526020016001820160009054906101000a900473ffffffffffffffffffffffffffffffffffffffff1673ffffffffffffffffffffffffffffffffffffffff1673ffffffffffffffffffffffffffffffffffffffff1681526020016002820160009054906101000a900473ffffffffffffffffffffffffffffffffffffffff1673ffffffffffffffffffffffffffffffffffffffff1673ffffffffffffffffffffffffffffffffffffffff168152602001600382015481526020016004820160009054906101000a900460ff161515151581525050848681518110611179577f4e487b7100000000000000000000000000000000000000000000000000000000600052603260045260246000fd5b6020026020010181905250848061118f90613ab3565b95505050505b80806111a090613ab3565b915050610fb3565b508094505050505090565b6000806002600084815260200190815260200160002060009054906101000a900473ffffffffffffffffffffffffffffffffffffffff169050600073ffffffffffffffffffffffffffffffffffffffff168173ffffffffffffffffffffffffffffffffffffffff16141561125c576040517f08c379a00000000000000000000000000000000000000000000000000000000081526004016112539061366f565b60405180910390fd5b80915050919050565b60008073ffffffffffffffffffffffffffffffffffffffff168273ffffffffffffffffffffffffffffffffffffffff1614156112d6576040517f08c379a00000000000000000000000000000000000000000000000000000000081526004016112cd9061364f565b60405180910390fd5b600360008373ffffffffffffffffffffffffffffffffffffffff1673ffffffffffffffffffffffffffffffffffffffff168152602001908152602001600020549050919050565b60006113296007611f80565b60006113356007611c2d565b90506113413382611f96565b61134b8185612170565b61135581846121e4565b8091505092915050565b3373ffffffffffffffffffffffffffffffffffffffff16600b600084815260200190815260200160002060020160009054906101000a900473ffffffffffffffffffffffffffffffffffffffff1673ffffffffffffffffffffffffffffffffffffffff1614611403576040517f08c379a00000000000000000000000000000000000000000000000000000000081526004016113fa906135af565b60405180910390fd5b6009543414611447576040517f08c379a000000000000000000000000000000000000000000000000000000000815260040161143e9061372f565b60405180910390fd5b6000600b600084815260200190815260200160002060040160006101000a81548160ff02191690831515021790555080600b60008481526020019081526020016000206003018190555033600b600084815260200190815260200160002060010160006101000a81548173ffffffffffffffffffffffffffffffffffffffff021916908373ffffffffffffffffffffffffffffffffffffffff16021790555030600b600084815260200190815260200160002060020160006101000a81548173ffffffffffffffffffffffffffffffffffffffff021916908373ffffffffffffffffffffffffffffffffffffffff16021790555061154560086123e7565b611550333084611d19565b5050565b60606001805461156390613a50565b80601f016020809104026020016040519081016040528092919081815260200182805461158f90613a50565b80156115dc5780601f106115b1576101008083540402835291602001916115dc565b820191906000526020600020905b8154815290600101906020018083116115bf57829003601f168201915b5050505050905090565b6115f86115f1611b6c565b8383612443565b5050565b8060098190555050565b611617611611611b6c565b83611c3b565b611656576040517f08c379a000000000000000000000000000000000000000000000000000000000815260040161164d9061378f565b60405180910390fd5b611662848484846125b0565b50505050565b6000600b60008381526020019081526020016000206003015490508034146116c5576040517f08c379a00000000000000000000000000000000000000000000000000000000081526004016116bc9061356f565b60405180910390fd5b33600b600084815260200190815260200160002060020160006101000a81548173ffffffffffffffffffffffffffffffffffffffff021916908373ffffffffffffffffffffffffffffffffffffffff1602179055506001600b600084815260200190815260200160002060040160006101000a81548160ff0219169083151502179055506000600b600084815260200190815260200160002060010160006101000a81548173ffffffffffffffffffffffffffffffffffffffff021916908373ffffffffffffffffffffffffffffffffffffffff16021790555080600b6000848152602001908152602001600020600301819055506117c46008611f80565b600a60009054906101000a900473ffffffffffffffffffffffffffffffffffffffff1673ffffffffffffffffffffffffffffffffffffffff166108fc6009549081150290604051600060405180830381858888f1935050505015801561182e573d6000803e3d6000fd5b50600b600083815260200190815260200160002060010160009054906101000a900473ffffffffffffffffffffffffffffffffffffffff1673ffffffffffffffffffffffffffffffffffffffff166108fc349081150290604051600060405180830381858888f193505050501580156118ab573d6000803e3d6000fd5b505050565b60606118bb82611b00565b6118fa576040517f08c379a00000000000000000000000000000000000000000000000000000000081526004016118f1906136cf565b60405180910390fd5b600060066000848152602001908152602001600020805461191a90613a50565b80601f016020809104026020016040519081016040528092919081815260200182805461194690613a50565b80156119935780601f1061196857610100808354040283529160200191611993565b820191906000526020600020905b81548152906001019060200180831161197657829003601f168201915b5050505050905060006119a461260c565b90506000815114156119ba5781925050506119fd565b6000825111156119ef5780826040516020016119d79291906133e0565b604051602081830303815290604052925050506119fd565b6119f884612623565b925050505b919050565b6000600560008473ffffffffffffffffffffffffffffffffffffffff1673ffffffffffffffffffffffffffffffffffffffff16815260200190815260200160002060008373ffffffffffffffffffffffffffffffffffffffff1673ffffffffffffffffffffffffffffffffffffffff16815260200190815260200160002060009054906101000a900460ff16905092915050565b60007f01ffc9a7000000000000000000000000000000000000000000000000000000007bffffffffffffffffffffffffffffffffffffffffffffffffffffffff1916827bffffffffffffffffffffffffffffffffffffffffffffffffffffffff1916149050919050565b60008073ffffffffffffffffffffffffffffffffffffffff166002600084815260200190815260200160002060009054906101000a900473ffffffffffffffffffffffffffffffffffffffff1673ffffffffffffffffffffffffffffffffffffffff1614159050919050565b600033905090565b816004600083815260200190815260200160002060006101000a81548173ffffffffffffffffffffffffffffffffffffffff021916908373ffffffffffffffffffffffffffffffffffffffff160217905550808273ffffffffffffffffffffffffffffffffffffffff16611be7836111b3565b73ffffffffffffffffffffffffffffffffffffffff167f8c5be1e5ebec7d5bd14f71427d1e84f3dd0314c0f7b2291e5b200ac8c7c3b92560405160405180910390a45050565b600081600001549050919050565b6000611c4682611b00565b611c85576040517f08c379a0000000000000000000000000000000000000000000000000000000008152600401611c7c9061360f565b60405180910390fd5b6000611c90836111b3565b90508073ffffffffffffffffffffffffffffffffffffffff168473ffffffffffffffffffffffffffffffffffffffff161480611cff57508373ffffffffffffffffffffffffffffffffffffffff16611ce784610671565b73ffffffffffffffffffffffffffffffffffffffff16145b80611d105750611d0f8185611a02565b5b91505092915050565b8273ffffffffffffffffffffffffffffffffffffffff16611d39826111b3565b73ffffffffffffffffffffffffffffffffffffffff1614611d8f576040517f08c379a0000000000000000000000000000000000000000000000000000000008152600401611d869061354f565b60405180910390fd5b600073ffffffffffffffffffffffffffffffffffffffff168273ffffffffffffffffffffffffffffffffffffffff161415611dff576040517f08c379a0000000000000000000000000000000000000000000000000000000008152600401611df6906135cf565b60405180910390fd5b611e0a8383836126ca565b611e15600082611b74565b6001600360008573ffffffffffffffffffffffffffffffffffffffff1673ffffffffffffffffffffffffffffffffffffffff1681526020019081526020016000206000828254611e659190613954565b925050819055506001600360008473ffffffffffffffffffffffffffffffffffffffff1673ffffffffffffffffffffffffffffffffffffffff1681526020019081526020016000206000828254611ebc91906138cd565b92505081905550816002600083815260200190815260200160002060006101000a81548173ffffffffffffffffffffffffffffffffffffffff021916908373ffffffffffffffffffffffffffffffffffffffff160217905550808273ffffffffffffffffffffffffffffffffffffffff168473ffffffffffffffffffffffffffffffffffffffff167fddf252ad1be2c89b69c2b068fc378daa952ba7f163c4a11628f55a4df523b3ef60405160405180910390a4611f7b8383836126cf565b505050565b6001816000016000828254019250508190555050565b600073ffffffffffffffffffffffffffffffffffffffff168273ffffffffffffffffffffffffffffffffffffffff161415612006576040517f08c379a0000000000000000000000000000000000000000000000000000000008152600401611ffd906136af565b60405180910390fd5b61200f81611b00565b1561204f576040517f08c379a00000000000000000000000000000000000000000000000000000000081526004016120469061358f565b60405180910390fd5b61205b600083836126ca565b6001600360008473ffffffffffffffffffffffffffffffffffffffff1673ffffffffffffffffffffffffffffffffffffffff16815260200190815260200160002060008282546120ab91906138cd565b92505081905550816002600083815260200190815260200160002060006101000a81548173ffffffffffffffffffffffffffffffffffffffff021916908373ffffffffffffffffffffffffffffffffffffffff160217905550808273ffffffffffffffffffffffffffffffffffffffff16600073ffffffffffffffffffffffffffffffffffffffff167fddf252ad1be2c89b69c2b068fc378daa952ba7f163c4a11628f55a4df523b3ef60405160405180910390a461216c600083836126cf565b5050565b61217982611b00565b6121b8576040517f08c379a00000000000000000000000000000000000000000000000000000000081526004016121af9061368f565b60405180910390fd5b806006600084815260200190815260200160002090805190602001906121df929190612a98565b505050565b60008111612227576040517f08c379a000000000000000000000000000000000000000000000000000000000815260040161221e9061376f565b60405180910390fd5b600954341461226b576040517f08c379a00000000000000000000000000000000000000000000000000000000081526004016122629061372f565b60405180910390fd5b6040518060a001604052808381526020013373ffffffffffffffffffffffffffffffffffffffff1681526020013073ffffffffffffffffffffffffffffffffffffffff16815260200182815260200160001515815250600b60008481526020019081526020016000206000820151816000015560208201518160010160006101000a81548173ffffffffffffffffffffffffffffffffffffffff021916908373ffffffffffffffffffffffffffffffffffffffff16021790555060408201518160020160006101000a81548173ffffffffffffffffffffffffffffffffffffffff021916908373ffffffffffffffffffffffffffffffffffffffff1602179055506060820151816003015560808201518160040160006101000a81548160ff0219169083151502179055509050506123a4333084611d19565b817fb640004f1d14576d0c209e240cad0410e0d8c0c33a09375861fbadae2588a98d33308460006040516123db949392919061341f565b60405180910390a25050565b60008160000154905060008111612433576040517f08c379a000000000000000000000000000000000000000000000000000000000815260040161242a9061350f565b60405180910390fd5b6001810382600001819055505050565b8173ffffffffffffffffffffffffffffffffffffffff168373ffffffffffffffffffffffffffffffffffffffff1614156124b2576040517f08c379a00000000000000000000000000000000000000000000000000000000081526004016124a9906135ef565b60405180910390fd5b80600560008573ffffffffffffffffffffffffffffffffffffffff1673ffffffffffffffffffffffffffffffffffffffff16815260200190815260200160002060008473ffffffffffffffffffffffffffffffffffffffff1673ffffffffffffffffffffffffffffffffffffffff16815260200190815260200160002060006101000a81548160ff0219169083151502179055508173ffffffffffffffffffffffffffffffffffffffff168373ffffffffffffffffffffffffffffffffffffffff167f17307eab39ab6107e8899845ad3d59bd9653f200f220920489ca2b5937696c31836040516125a391906134d2565b60405180910390a3505050565b6125bb848484611d19565b6125c7848484846126d4565b612606576040517f08c379a00000000000000000000000000000000000000000000000000000000081526004016125fd9061352f565b60405180910390fd5b50505050565b606060405180602001604052806000815250905090565b606061262e82611b00565b61266d576040517f08c379a00000000000000000000000000000000000000000000000000000000081526004016126649061370f565b60405180910390fd5b600061267761260c565b9050600081511161269757604051806020016040528060008152506126c2565b806126a18461286b565b6040516020016126b29291906133e0565b6040516020818303038152906040525b915050919050565b505050565b505050565b60006126f58473ffffffffffffffffffffffffffffffffffffffff16612a18565b1561285e578373ffffffffffffffffffffffffffffffffffffffff1663150b7a0261271e611b6c565b8786866040518563ffffffff1660e01b81526004016127409493929190613464565b602060405180830381600087803b15801561275a57600080fd5b505af192505050801561278b57506040513d601f19601f820116820180604052508101906127889190612e44565b60015b61280e573d80600081146127bb576040519150601f19603f3d011682016040523d82523d6000602084013e6127c0565b606091505b50600081511415612806576040517f08c379a00000000000000000000000000000000000000000000000000000000081526004016127fd9061352f565b60405180910390fd5b805181602001fd5b63150b7a0260e01b7bffffffffffffffffffffffffffffffffffffffffffffffffffffffff1916817bffffffffffffffffffffffffffffffffffffffffffffffffffffffff191614915050612863565b600190505b949350505050565b606060008214156128b3576040518060400160405280600181526020017f30000000000000000000000000000000000000000000000000000000000000008152509050612a13565b600082905060005b600082146128e55780806128ce90613ab3565b915050600a826128de9190613923565b91506128bb565b60008167ffffffffffffffff811115612927577f4e487b7100000000000000000000000000000000000000000000000000000000600052604160045260246000fd5b6040519080825280601f01601f1916602001820160405280156129595781602001600182028036833780820191505090505b5090505b60008514612a0c576001826129729190613954565b9150600a856129819190613afc565b603061298d91906138cd565b60f81b8183815181106129c9577f4e487b7100000000000000000000000000000000000000000000000000000000600052603260045260246000fd5b60200101907effffffffffffffffffffffffffffffffffffffffffffffffffffffffffffff1916908160001a905350600a85612a059190613923565b945061295d565b8093505050505b919050565b6000808273ffffffffffffffffffffffffffffffffffffffff163b119050919050565b6040518060a0016040528060008152602001600073ffffffffffffffffffffffffffffffffffffffff168152602001600073ffffffffffffffffffffffffffffffffffffffff168152602001600081526020016000151581525090565b828054612aa490613a50565b90600052602060002090601f016020900481019282612ac65760008555612b0d565b82601f10612adf57805160ff1916838001178555612b0d565b82800160010185558215612b0d579182015b82811115612b0c578251825591602001919060010190612af1565b5b509050612b1a9190612b1e565b5090565b5b80821115612b37576000816000905550600101612b1f565b5090565b6000612b4e612b49846137ef565b6137ca565b905082815260208101848484011115612b6657600080fd5b612b71848285613a0e565b509392505050565b6000612b8c612b8784613820565b6137ca565b905082815260208101848484011115612ba457600080fd5b612baf848285613a0e565b509392505050565b600081359050612bc681614191565b92915050565b600081359050612bdb816141a8565b92915050565b600081359050612bf0816141bf565b92915050565b600081519050612c05816141bf565b92915050565b600082601f830112612c1c57600080fd5b8135612c2c848260208601612b3b565b91505092915050565b600082601f830112612c4657600080fd5b8135612c56848260208601612b79565b91505092915050565b600081359050612c6e816141d6565b92915050565b600060208284031215612c8657600080fd5b6000612c9484828501612bb7565b91505092915050565b60008060408385031215612cb057600080fd5b6000612cbe85828601612bb7565b9250506020612ccf85828601612bb7565b9150509250929050565b600080600060608486031215612cee57600080fd5b6000612cfc86828701612bb7565b9350506020612d0d86828701612bb7565b9250506040612d1e86828701612c5f565b9150509250925092565b60008060008060808587031215612d3e57600080fd5b6000612d4c87828801612bb7565b9450506020612d5d87828801612bb7565b9350506040612d6e87828801612c5f565b925050606085013567ffffffffffffffff811115612d8b57600080fd5b612d9787828801612c0b565b91505092959194509250565b60008060408385031215612db657600080fd5b6000612dc485828601612bb7565b9250506020612dd585828601612bcc565b9150509250929050565b60008060408385031215612df257600080fd5b6000612e0085828601612bb7565b9250506020612e1185828601612c5f565b9150509250929050565b600060208284031215612e2d57600080fd5b6000612e3b84828501612be1565b91505092915050565b600060208284031215612e5657600080fd5b6000612e6484828501612bf6565b91505092915050565b60008060408385031215612e8057600080fd5b600083013567ffffffffffffffff811115612e9a57600080fd5b612ea685828601612c35565b9250506020612eb785828601612c5f565b9150509250929050565b600060208284031215612ed357600080fd5b6000612ee184828501612c5f565b91505092915050565b60008060408385031215612efd57600080fd5b6000612f0b85828601612c5f565b9250506020612f1c85828601612c5f565b9150509250929050565b6000612f32838361335a565b60a08301905092915050565b612f478161399a565b82525050565b612f5681613988565b82525050565b6000612f6782613861565b612f71818561388f565b9350612f7c83613851565b8060005b83811015612fad578151612f948882612f26565b9750612f9f83613882565b925050600181019050612f80565b5085935050505092915050565b612fc3816139ac565b82525050565b612fd2816139ac565b82525050565b6000612fe38261386c565b612fed81856138a0565b9350612ffd818560208601613a1d565b61300681613be9565b840191505092915050565b600061301c82613877565b61302681856138b1565b9350613036818560208601613a1d565b61303f81613be9565b840191505092915050565b600061305582613877565b61305f81856138c2565b935061306f818560208601613a1d565b80840191505092915050565b6000613088601b836138b1565b915061309382613bfa565b602082019050919050565b60006130ab6032836138b1565b91506130b682613c23565b604082019050919050565b60006130ce6025836138b1565b91506130d982613c72565b604082019050919050565b60006130f1601e836138b1565b91506130fc82613cc1565b602082019050919050565b6000613114601c836138b1565b915061311f82613cea565b602082019050919050565b60006131376022836138b1565b915061314282613d13565b604082019050919050565b600061315a6024836138b1565b915061316582613d62565b604082019050919050565b600061317d6019836138b1565b915061318882613db1565b602082019050919050565b60006131a0602c836138b1565b91506131ab82613dda565b604082019050919050565b60006131c36038836138b1565b91506131ce82613e29565b604082019050919050565b60006131e6602a836138b1565b91506131f182613e78565b604082019050919050565b60006132096029836138b1565b915061321482613ec7565b604082019050919050565b600061322c602e836138b1565b915061323782613f16565b604082019050919050565b600061324f6020836138b1565b915061325a82613f65565b602082019050919050565b60006132726031836138b1565b915061327d82613f8e565b604082019050919050565b6000613295602c836138b1565b91506132a082613fdd565b604082019050919050565b60006132b8602f836138b1565b91506132c38261402c565b604082019050919050565b60006132db6026836138b1565b91506132e68261407b565b604082019050919050565b60006132fe6021836138b1565b9150613309826140ca565b604082019050919050565b60006133216019836138b1565b915061332c82614119565b602082019050919050565b60006133446031836138b1565b915061334f82614142565b604082019050919050565b60a08201600082015161337060008501826133c2565b5060208201516133836020850182612f3e565b5060408201516133966040850182612f3e565b5060608201516133a960608501826133c2565b5060808201516133bc6080850182612fba565b50505050565b6133cb81613a04565b82525050565b6133da81613a04565b82525050565b60006133ec828561304a565b91506133f8828461304a565b91508190509392505050565b60006020820190506134196000830184612f4d565b92915050565b60006080820190506134346000830187612f4d565b6134416020830186612f4d565b61344e60408301856133d1565b61345b6060830184612fc9565b95945050505050565b60006080820190506134796000830187612f4d565b6134866020830186612f4d565b61349360408301856133d1565b81810360608301526134a58184612fd8565b905095945050505050565b600060208201905081810360008301526134ca8184612f5c565b905092915050565b60006020820190506134e76000830184612fc9565b92915050565b600060208201905081810360008301526135078184613011565b905092915050565b600060208201905081810360008301526135288161307b565b9050919050565b600060208201905081810360008301526135488161309e565b9050919050565b60006020820190508181036000830152613568816130c1565b9050919050565b60006020820190508181036000830152613588816130e4565b9050919050565b600060208201905081810360008301526135a881613107565b9050919050565b600060208201905081810360008301526135c88161312a565b9050919050565b600060208201905081810360008301526135e88161314d565b9050919050565b6000602082019050818103600083015261360881613170565b9050919050565b6000602082019050818103600083015261362881613193565b9050919050565b60006020820190508181036000830152613648816131b6565b9050919050565b60006020820190508181036000830152613668816131d9565b9050919050565b60006020820190508181036000830152613688816131fc565b9050919050565b600060208201905081810360008301526136a88161321f565b9050919050565b600060208201905081810360008301526136c881613242565b9050919050565b600060208201905081810360008301526136e881613265565b9050919050565b6000602082019050818103600083015261370881613288565b9050919050565b60006020820190508181036000830152613728816132ab565b9050919050565b60006020820190508181036000830152613748816132ce565b9050919050565b60006020820190508181036000830152613768816132f1565b9050919050565b6000602082019050818103600083015261378881613314565b9050919050565b600060208201905081810360008301526137a881613337565b9050919050565b60006020820190506137c460008301846133d1565b92915050565b60006137d46137e5565b90506137e08282613a82565b919050565b6000604051905090565b600067ffffffffffffffff82111561380a57613809613bba565b5b61381382613be9565b9050602081019050919050565b600067ffffffffffffffff82111561383b5761383a613bba565b5b61384482613be9565b9050602081019050919050565b6000819050602082019050919050565b600081519050919050565b600081519050919050565b600081519050919050565b6000602082019050919050565b600082825260208201905092915050565b600082825260208201905092915050565b600082825260208201905092915050565b600081905092915050565b60006138d882613a04565b91506138e383613a04565b9250827fffffffffffffffffffffffffffffffffffffffffffffffffffffffffffffffff0382111561391857613917613b2d565b5b828201905092915050565b600061392e82613a04565b915061393983613a04565b92508261394957613948613b5c565b5b828204905092915050565b600061395f82613a04565b915061396a83613a04565b92508282101561397d5761397c613b2d565b5b828203905092915050565b6000613993826139e4565b9050919050565b60006139a5826139e4565b9050919050565b60008115159050919050565b60007fffffffff0000000000000000000000000000000000000000000000000000000082169050919050565b600073ffffffffffffffffffffffffffffffffffffffff82169050919050565b6000819050919050565b82818337600083830152505050565b60005b83811015613a3b578082015181840152602081019050613a20565b83811115613a4a576000848401525b50505050565b60006002820490506001821680613a6857607f821691505b60208210811415613a7c57613a7b613b8b565b5b50919050565b613a8b82613be9565b810181811067ffffffffffffffff82111715613aaa57613aa9613bba565b5b80604052505050565b6000613abe82613a04565b91507fffffffffffffffffffffffffffffffffffffffffffffffffffffffffffffffff821415613af157613af0613b2d565b5b600182019050919050565b6000613b0782613a04565b9150613b1283613a04565b925082613b2257613b21613b5c565b5b828206905092915050565b7f4e487b7100000000000000000000000000000000000000000000000000000000600052601160045260246000fd5b7f4e487b7100000000000000000000000000000000000000000000000000000000600052601260045260246000fd5b7f4e487b7100000000000000000000000000000000000000000000000000000000600052602260045260246000fd5b7f4e487b7100000000000000000000000000000000000000000000000000000000600052604160045260246000fd5b6000601f19601f8301169050919050565b7f436f756e7465723a2064656372656d656e74206f766572666c6f770000000000600082015250565b7f4552433732313a207472616e7366657220746f206e6f6e20455243373231526560008201527f63656976657220696d706c656d656e7465720000000000000000000000000000602082015250565b7f4552433732313a207472616e736665722066726f6d20696e636f72726563742060008201527f6f776e6572000000000000000000000000000000000000000000000000000000602082015250565b7f706c65617365207375626d6974207468652061736b696e672070726963650000600082015250565b7f4552433732313a20746f6b656e20616c7265616479206d696e74656400000000600082015250565b7f596f7520617265206e6f7420746865206f776e657220666f722074686520697460008201527f656d000000000000000000000000000000000000000000000000000000000000602082015250565b7f4552433732313a207472616e7366657220746f20746865207a65726f2061646460008201527f7265737300000000000000000000000000000000000000000000000000000000602082015250565b7f4552433732313a20617070726f766520746f2063616c6c657200000000000000600082015250565b7f4552433732313a206f70657261746f7220717565727920666f72206e6f6e657860008201527f697374656e7420746f6b656e0000000000000000000000000000000000000000602082015250565b7f4552433732313a20617070726f76652063616c6c6572206973206e6f74206f7760008201527f6e6572206e6f7220617070726f76656420666f7220616c6c0000000000000000602082015250565b7f4552433732313a2062616c616e636520717565727920666f7220746865207a6560008201527f726f206164647265737300000000000000000000000000000000000000000000602082015250565b7f4552433732313a206f776e657220717565727920666f72206e6f6e657869737460008201527f656e7420746f6b656e0000000000000000000000000000000000000000000000602082015250565b7f45524337323155524953746f726167653a2055524920736574206f66206e6f6e60008201527f6578697374656e7420746f6b656e000000000000000000000000000000000000602082015250565b7f4552433732313a206d696e7420746f20746865207a65726f2061646472657373600082015250565b7f45524337323155524953746f726167653a2055524920717565727920666f722060008201527f6e6f6e6578697374656e7420746f6b656e000000000000000000000000000000602082015250565b7f4552433732313a20617070726f76656420717565727920666f72206e6f6e657860008201527f697374656e7420746f6b656e0000000000000000000000000000000000000000602082015250565b7f4552433732314d657461646174613a2055524920717565727920666f72206e6f60008201527f6e6578697374656e7420746f6b656e0000000000000000000000000000000000602082015250565b7f50726963652073686f756c6420626520657175616c20746f206c697374696e6760008201527f2070726963650000000000000000000000000000000000000000000000000000602082015250565b7f4552433732313a20617070726f76616c20746f2063757272656e74206f776e6560008201527f7200000000000000000000000000000000000000000000000000000000000000602082015250565b7f70726963652073686f756c642062652061746c65617365203100000000000000600082015250565b7f4552433732313a207472616e736665722063616c6c6572206973206e6f74206f60008201527f776e6572206e6f7220617070726f766564000000000000000000000000000000602082015250565b61419a81613988565b81146141a557600080fd5b50565b6141b1816139ac565b81146141bc57600080fd5b50565b6141c8816139b8565b81146141d357600080fd5b50565b6141df81613a04565b81146141ea57600080fd5b5056fea2646970667358221220ed0bf7e3b5c366dde6a07010df4904092a2fcb80f8178dc38224f978e1791d6864736f6c63430008040033",
  "linkReferences": {},
  "deployedLinkReferences": {}
}